S09F00004D52532D436865636B3E3E3E3430303830332C3430303934382C3430313339352C3430313338302C3430303831372C3430313636362C3430303831312C3430303831342C3430303831392C3430313336382C3430313838322C3430313931322C3430313931342C3430313937342C3430323034312C3430313531373C3C3C43202F2F2056342E31352E312E30204C69622D5333324B2D342E31352E31B5
S03500004D52532D50726F67446174613E3E3E323530206B4269743B56312E302E303B4343313657502043414E20415558204750494F02
S0FF00004D52532D4578747261446174613E3E3E312E3135342E3330302E30302C312E3135342E3231312E30302C312E3135342E3330302E303431302C312E3135342E3330302E303230302C312E3135342E3330302E31302C312E3135342E3330302E32302C312E3135342E3331302E30302C312E3135342E3332302E30302C312E3135342E3333302E30302C312E3135342E3334332E30332C312E3135342E3330322E30302C312E3135342E3330322E30332C312E3135342E3330322E33302C312E3135342E3330302E30342C312E3135342E3331302E30342C312E3135342E3330302E30332C312E3135342E3330302E303032312D363031313839302C31D8
S03D00004D52532D4578747261446174613E3E3E2E3135342E3332302E30352C312E3135342E3330302E30302D363035323138372C312E3135342E3B433B33
S06E00004D52532D496D6167654964656E743E3E3E384644314430453135374135363939453343303730463943464331384638313944363144344346393837323236414439324231304239353333333733383943443C3C3C202F2F20323032342D30392D30355431363A35343A31371E
S3250001000078563412BF770B4F010000006187015D005401004E4F5F50524F47000000000065
S325000100200000000000000000000000000000000000000000000000000000000000000000B9
S32500010040000000000000000000000000000000000000000000000000000000000000000099
S32500010060000000000000000000000000000000000000000000000000000000000000000079
S32500010080000000000000000000000000000000000000000000000000000000000000000059
S3250001100000700020511401009914010099140100991401009914010099140100000000006D
S3250001102000000000000000000000000099140100991401000000000099140100D5BE01000B
S32500011040856401008F64010099640100A3640100AD640100B7640100C1640100CB64010021
S32500011060D5640100DF640100E9640100F3640100FD64010007650100116501001B6501007E
S325000110802565010099140100991401009914010099140100991401009914010099140100FC
S325000110A07F99010089990100BF990100C9990100D3990100991401009914010099140100BA
S325000110C0991401009914010099140100991401009914010099140100991401009914010099
S325000110E09D3901009914010099140100991401009914010099140100C1AE0100CBAE0100C2
S32500011100991401009914010099140100991401009914010099140100991401009914010058
S32500011120991401009914010099140100991401009914010099140100991401009914010038
S32500011140991401009914010099140100991401009914010099140100991401009914010018
S32500011160991401009914010099140100991401009914010099140100257D01002F7D010004
S32500011180397D0100437D01004D7D01009914010099140100577D0100617D01009914010047
S325000111A06B7D0100991401009914010099140100757D01007F7D010099140100897D010090
S325000111C0991401009914010099140100118801001D880100298801003588010099140100A0
S325000111E071880100418801004D8801005988010065880100991401008D880100A988010088
S32500011200B5880100C1880100CD8801009914010009890100D9880100E5880100F18801005E
S32500011220FD880100991401002589010099140100991401009914010099140100991401005E
S32500011240991401009914010099140100991401009914010099140100991401009914010017
S325000112609914010099140100991401009914010099140100991401009914010099140100F7
S325000112809914010099140100991401009914010099140100991401009914010099140100D7
S325000112A09914010099140100991401009914010099140100991401009914010099140100B7
S325000112C0991401009914010099140100991401009914010099140100991401009914010097
S325000112E0991401009914010099140100991401009914010099140100991401009914010077
S32500011300991401009914010099140100991401009914010099140100991401009914010056
S32500011320991401009914010099140100991401009914010099140100991401009914010036
S32500011340991401009914010099140100991401009914010099140100991401009914010016
S325000113609914010099140100991401009914010099140100991401009914010099140100F6
S325000113809914010099140100991401009914010099140100991401009914010099140100D6
S325000113A09914010099140100991401009914010099140100991401009914010099140100B6
S325000113C0991401009914010099140100991401009914010099140100991401009914010096
S325000113E099140100991401009914010099140100991401009914010099140100FFFFFFFF28
S32500011400FFFFFFFFFFFFFFFFFFFFFFFFFE7FFFFF10B5054C237833B9044B13B10448AFF3B8
S3250001142000800123237010BD10000020000000001832020008B5034B1BB103490348AFF315
S32500011440008008BD00000000140000201832020072B64FF000014FF000024FF000034FF096
S3250001146000044FF000054FF000064FF00007B846B946BA46BB46BC46044885460448804768
S325000114800448804762B602F04FFEFEE7007000200D47010075AF0100FFF7FEBF81F0004187
S325000114A002E000BF83F0004330B54FEA41044FEA430594EA050F08BF90EA020F1FBF54EAEA
S325000114C0000C55EA020C7FEA645C7FEA655C00F0E2804FEA5454D4EB5555B8BF6D420CDDAE
S325000114E02C4480EA020281EA030382EA000083EA010180EA020281EA0303362D88BF30BD45
S3250001150011F0004F4FEA01314FF4801C4CEA113102D0404261EB410113F0004F4FEA03330F
S325000115204CEA133302D0524263EB430394EA050F00F0A780A4F10104D5F1200E0DDB02FA13
S325000115400EFC22FA05F2801841F1000103FA0EF2801843FA05F359410EE0A5F120050EF190
S32500011560200E012A03FA0EFC28BF4CF0020C43FA05F3C01851EBE37101F0004507D54FF0E5
S32500011580000EDCF1000C7EEB00006EEB0101B1F5801F1BD3B1F5001F0CD349085FEA3000F8
S325000115A04FEA3C0C04F101044FEA445212F5800F80F09A80BCF1004F08BF5FEA500C50F111
S325000115C0000041EB045141EA050130BD5FEA4C0C404141EB010111F4801FA4F10104E9D11D
S325000115E091F0000F04BF01460020B1FA81F308BF2033A3F10B03B3F120020CDA0C3208DD80
S3250001160002F1140CC2F10C0201FA0CF021FA02F10CE002F11402D8BFC2F1200C01FA02F191
S3250001162020FA0CFCDCBF41EA0C019040E41AA2BF01EB0451294330BD6FEA04041F3C1CDA33
S325000116400C340EDC04F11404C4F1200220FA04F001FA02F340EA030021FA04F345EA030105
S3250001166030BDC4F10C04C4F1200220FA02F001FA04F340EA0300294630BD21FA04F02946D5
S3250001168030BD94F0000F83F4801306BF81F480110134013D4EE77FEA645C18BF7FEA655C1C
S325000116A029D094EA050F08BF90EA020F05D054EA000C04BF1946104630BD91EA030F1EBF58
S325000116C00021002030BD5FEA545C05D14000494128BF41F0004130BD14F580043CBF01F578
S325000116E0801130BD01F0004545F0FE4141F470014FF0000030BD7FEA645C1ABF1946104632
S325000117007FEA655C1CBF0B46024650EA013406BF52EA033591EA030F41F4002130BD00BFED
S3250001172090F0000F04BF0021704730B54FF4806404F132044FF000054FF0000150E700BFC7
S3250001174090F0000F04BF0021704730B54FF4806404F1320410F0004548BF40424FF0000113
S325000117603EE700BF42004FEAE2014FEA31014FEA02701FBF12F07F4393F07F4F81F06051F5
S32500011780704732F07F4208BF704793F07F4F04BF41F40021704730B54FF4607401F00045D7
S325000117A021F000411CE700BF50EA010208BF704730B54FF000050AE050EA010208BF704785
S325000117C030B511F0004502D5404261EB41014FF4806404F132045FEA915C3FF4D8AE4FF070
S325000117E003025FEADC0C18BF03325FEADC0C18BF033202EBDC02C2F1200300FA03FC20FAAF
S3250001180002F001FA03FE40EA0E0021FA02F11444BDE600BF70B54FF0FF0C4CF4E06C1CEAD2
S3250001182011541DBF1CEA135594EA0C0F95EA0C0F00F0DEF82C4481EA030621EA4C5123EA60
S325000118404C5350EA013518BF52EA033541F4801143F4801338D0A0FB02CE4FF00005E1FB04
S3250001186002E506F00042E0FB03E54FF00006E1FB03569CF0000F18BF4EF0010EA4F1FF04AE
S32500011880B6F5007F64F5407404D25FEA4E0E6D4146EB060642EAC62141EA55514FEAC520A2
S325000118A040EA5E504FEACE2EB4F1FD0C88BFBCF5E06F1ED8BEF1004F08BF5FEA500E50F17C
S325000118C0000041EB045170BD06F0004646EA010140EA020081EA0301B4EB5C04C2BFD4EB0B
S325000118E00C0541EA045170BD41F480114FF0000E013C00F3AB8014F1360FDEBF002001F0BD
S32500011900004170BDC4F10004203C35DA0C341BDC04F11404C4F1200500FA05F320FA04F010
S3250001192001FA05F240EA020001F0004221F0004110EBD37021FA04F642EB06015EEA430EDD
S3250001194008BF20EAD37070BDC4F10C04C4F1200500FA04F320FA05F001FA04F240EA020083
S3250001196001F0004110EBD37041F100015EEA430E08BF20EAD37070BDC4F1200500FA05F218
S325000119804EEA020E20FA04F301FA05F243EA020321FA04F001F0004121FA04F220EA020065
S325000119A000EBD3705EEA430E08BF20EAD37070BD94F0000F0FD101F00046400041EB010100
S325000119C011F4801F08BF013CF7D041EA060195F0000F18BF704703F00046520043EB03037E
S325000119E013F4801F08BF013DF7D043EA0603704794EA0C0F0CEA135518BF95EA0C0F0CD03D
S32500011A0050EA410618BF52EA4306D1D181EA030101F000414FF0000070BD50EA410606BFED
S32500011A201046194652EA430619D094EA0C0F02D150EA013613D195EA0C0F05D152EA0336D6
S32500011A401CBF104619460AD181EA030101F0004141F0FE4141F470014FF0000070BD41F0C0
S32500011A60FE4141F4780170BD70B54FF0FF0C4CF4E06C1CEA11541DBF1CEA135594EA0C0FFC
S32500011A8095EA0C0F00F0A7F8A4EB050481EA030E52EA03354FEA013100F088804FEA0333BC
S32500011AA04FF0805545EA131343EA12634FEA022245EA111545EA10654FEA00260EF0004120
S32500011AC09D4208BF964244F1FD0404F5407402D25B084FEA3202B61A65EB03055B084FEA36
S32500011AE032024FF480104FF4002CB6EB020E75EB030E22BFB61A754640EA0C005B084FEA09
S32500011B003202B6EB020E75EB030E22BFB61A754640EA5C005B084FEA3202B6EB020E75EB95
S32500011B20030E22BFB61A754640EA9C005B084FEA3202B6EB020E75EB030E22BFB61A7546FD
S32500011B4040EADC0055EA060E18D04FEA051545EA16754FEA06164FEAC30343EA52734FEAB1
S32500011B60C2025FEA1C1CC0D111F4801F0BD141EA00014FF000004FF0004CB6E711F4801FD1
S32500011B8004BF01430020B4F1FD0C88BFBCF5E06F3FF6AFAEB5EB030C04BFB6EB020C5FEA26
S32500011BA0500C50F1000041EB045170BD0EF0004E4EEA113114EB5C04C2BFD4EB0C0541EA32
S32500011BC0045170BD41F480114FF0000E013C90E645EA060E8DE60CEA135594EA0C0F08BF42
S32500011BE095EA0C0F3FF43BAF94EA0C0F0AD150EA01347FF434AF95EA0C0F7FF425AF1046B7
S32500011C0019462CE795EA0C0F06D152EA03353FF4FDAE1046194622E750EA410618BF52EA36
S32500011C2043067FF4C5AE50EA41047FF40DAF52EA43057FF4EBAE12E74A0011D212F50012F1
S32500011C4011D20DD56FF47873B3EB62520ED44FEAC12343F0004343EA505323FA02F070470D
S32500011C604FF00000704750EA013002D14FF0FF3070474FF00000704753B94AB9002908BF0F
S32500011C8000281CBF4FF0FF314FF0FF3000F074B9ADF1080C6DE904CE00F006F8DDF804E0BF
S32500011CA0DDE9022304B070472DE9F047089E04468846002B40F085808A42154648D9B2FA68
S32500011CC082F24AB1C2F1200701FA02F320FA07F7954047EA030894404FEA154E230CB8FB49
S32500011CE0FEF71FFA85FC0EFB178843EA084307FB0CF1994209D9EB1807F1FF3080F0E38075
S32500011D00994240F2E080023F2B445B1AA4B2B3FBFEF00EFB103344EA034400FB0CFCA4458B
S32500011D2009D92C1900F1FF3380F0CB80A44540F2C88002382C4440EA0740A4EB0C04002753
S32500011D401EB1D4400023C6E900433946BDE8F087002A53D0B2FA82F2002A40F0B680491B88
S32500011D604FEA154E1FFA85F80127B1FBFEFC230C0EFB1C1143EA014308FB0CF1994207D9CB
S32500011D80EB180CF1FF3002D2994200F2EC808446591AA3B2B1FBFEF00EFB101443EA044432
S32500011DA008FB00F8A04507D92C1900F1FF3302D2A04500F2DC801846A4EB080440EA0C407E
S32500011DC0BEE78B4208D9002E78D00027C6E9000138463946BDE8F087B3FA83F77FB98B4217
S32500011DE002D3824200F2BD80841A61EB030301209846002EA9D0C6E90048A6E7FFDEC7F165
S32500011E002005BB4022FA05FC4CEA030C01FA07F420FA05F821FA05F34FEA1C4E48EA04043C
S32500011E20B3FBFEF9210C0EFB19331FFA8CF841EA034309FB08FA9A4502FA07F200FA07F19A
S32500011E400BD91CEB030309F1FF3080F088809A4540F28580A9F102096344A3EB0A03A4B296
S32500011E60B3FBFEF00EFB103344EA034400FB08F8A04508D91CEB040400F1FF336BD2A045E9
S32500011E8069D90238644440EA0940A4EB0804A0FB02894C45C6464B4654D351D0002E69D006
S32500011EA0B1EB0E0264EB030404FA05F522FA07F3FC401D43C6E90054002746E73746304625
S32500011EC043E7184637E707461FE7C2F1200320FA03F7954001FA02F021FA03F34FEA154EA9
S32500011EE03843010CB3FBFEF71FFA85F80EFB173341EA034107FB08F38B4204FA02F407D9BA
S32500011F00691807F1FF3C28D28B4226D9023F2944CB1A81B2B3FBFEF00EFB103341EA034123
S32500011F2000FB08F38B4207D9691800F1FF3C10D28B420ED902382944C91A40EA074714E7B7
S32500011F404145ABD2B8EB020E69EB0C0201381346A4E76046F0E7184695E76746D8E78146BB
S32500011F607BE7384645E7ACF1020C2B4410E702382C4421E73746E8E6704700BF034613F876
S32500011F80012B002AFBD1181A013870477047704770B50849084802F0FBF9084D6C1E0D35BB
S32500011FA00026314614F8010F00F086F8AC42F8D170BD00BFB0210200C8210200988CFF1F50
S32500011FC02DE9F84302F0D8F9244E751E244F0D363C464FF000084FF0010915F8010F02F00A
S32500011FE0D3F901280CBF49464146207802F028FB0134B542F1D11B4C1B4D0D3714F8010F3A
S3250001200002F04CFB014615F8010F02F0B9F9BC42F4D1164F7C1E164E073740F6F619DFF8F8
S325000120205880144D14F8010F02F08CF9484528BF4846A8FB0031C9082B780B442B7016F88B
S32500012040010F02F09DF9BC42ECD10A4C2178242002F096F900232370BDE8F883808CFF1F72
S32500012060A88CFF1FA78CFF1FB78CFF1F788CFF1F8F8CFF1F2D000020CDCCCCCC704770470E
S3250001208038B50D46272808D8044600EB4003094A02EB8303187A582801D9284638BD02F04B
S325000120A0FDFA0028F9D004EB4404024B03EB84046568F2E7C88CFF1F27281DD808B500EB33
S325000120C040030E4A02EB83035B6883B100EB400002EB8000007A582809D829B1012907D0A6
S325000120E0002102F0ADFA02E0002102F0A9FA08BD012102F0A5FAFAE7704700BFC88CFF1F46
S3250001210008B5012009F07CFF5321012009F03AFF0B4801F087FE022002F06EF801215820C2
S3250001212009F094FA0121372009F090FA0021572009F08CFA0121512009F088FA08BD00BF6C
S32500012140E821020008B550B1012811D00121472009F07CFA0121412009F078FA07E00021B7
S32500012160472009F073FA0121412009F06FFA08BD0121472009F06AFA0021412009F066FA20
S32500012180F5E700002DE9F0410021372009F05EFA0F4C04F11C08002736253C263946284607
S325000121A009F054FA6178304609F050FA0121284609F04CFA02344445F0D10121372009F07E
S325000121C045FA0021572009F041FABDE8F08100BF588CFF1F030E03EB0063020202F47F0239
S325000121E01344000A00F47F4018447047B2F5007F5CD22DE9F04F83B0D418B4F5007F41DCA4
S325000122005C1EA4B21F2C3DD802F0070E03EB0E04202C37DC4FF0000C6446640044F001048F
S325000122200CF1010C1FFA8CF5AB42F6D80F46D50805F1010B05F1020A05F1030911F80B20CC
S3250001224011F80A804FEA084808EB02284A5D904411F8096008EB066820409DF83020012A80
S3250001226013D000FA0EF604FA0EF028EA000006437E55330A07F80B30330C07F80A30360E19
S3250001228007F8096003B0BDE8F08FC3F12003A3EB0E0E1FFA8EF301939840FFF79BFF064695
S325000122A0019B04FA03F0FFF795FFDEE77047F0B49DF81050B1F5007F54D28C18B4F5007FD4
S325000122C053DC541EA4B21F2C51D801F007041619202E4EDCCE08012B20D081194F788B7893
S325000122E01B0403EB0723805D1844CB7800EB0360E04000231C46640044F00104013399B215
S325000123009142F8D32040142D03D0113DEDB2012D29D8551E20FA05F51F231AE08419E378CD
S32500012320805D03EB0060A37800EB0320637800EB0340C2F1200301F00701591ACBB2D84062
S32500012340D7E7012D4FEA440408BF44F00104013B9BB2591C89B29142F3D86400002BF6D1DC
S32500012360604000E00020F0BC70470020FBE70020F9E70020F7E7000008B5044B53F82030AC
S3250001238010221968586901F0EDF808BDFC8EFF1F08B5044B53F8203010225968186901F073
S325000123A0E1F808BDFC8EFF1F10B5A4B00446149009F07CFE0D4B53F824309A68694618692D
S325000123C001F039F918B109F073FE24B010BD694613A809F01DF80028F5D1044B53F82430AB
S325000123E00121186901F041F9EDE700BFFC8EFF1F00B583B000238DF807308DF807309DF8B5
S325000124000730DBB2012B0ED89DF80700FFF7CCFF9DF807300133DBB28DF807309DF807306D
S32500012420DBB2012BF0D903B05DF804FB30B587B000EB40000C4B03EB800007C806AB03E994
S3250001244007009DF80C009DF8123000939DF81330BDF81020BDF80E106825044C05FB0040B6
S32500012460FFF725FF07B030BDB41B0200099BFF1F30B587B00C4600EB40000C4B03EB8000A6
S3250001248007C806AB03E907009DF80C109DF813300093BDF81030BDF80E206825044805FBF5
S325000124A001012046FFF7A2FE07B030BDB41B0200099BFF1F08B50B4602680A60017A1A7AEF
S325000124C061F300021A72027AC2F34002197A62F34101197290F8492083F8492090F84A2024
S325000124E083F84A2090F84B2083F84B2090F84C2083F84C2090F8492000F1090103F1090053
S325000125000FF084FA08BD000008B5054B53F82030DA68586901F03AF8002818BF032008BDBD
S32500012520FC8EFF1F30B585B005460C460A7A0B6843EAC273009391F8490008F0B9FF8DF842
S32500012540040094F84B308DF8053094F84C308DF8063094F8492004F1090102A80FF056FAFF
S32500012560064B53F825309A686946186901F00EF8002818BF032005B030BD00BFFC8EFF1F0F
S325000125802DE9F04F85B007468A46634B9B88002B00F094800025614EDFF87C8101F10903E7
S325000125A0039328E004EBC40306EB83035B7F002B58D198F80C30002B68D09AF8083013F01F
S325000125C0010F63D004EBC40306EB83035B6803F47F43B8F81020934258D1DAF8003003F431
S325000125E07F43B8F81220934250D00135B8F80420ABB29A4262D9ACB2A14604EBC40316F8B4
S325000126002330DBB2BB42F0D104EBC40306EB83035B7D002BE9D104EBC40306EB83031B7A69
S32500012620DBB29AF8082002F001029A42DDD104EBC40306EB83039969DAF800205B689A420D
S32500012640B0D004EBC40306EB83039B69002BCCD004EBC40306EB83035B685A4032EA010351
S32500012660C3D19FE704EBC40B06EB8B0B9BF81C109BF81D200423009300230398FFF717FEE2
S325000126809BF81E30DBB29842AFD192E709EBC902224B03EB82039B7DDBB2172B27D0204A0B
S325000126A0682303FB09231B7D13F0200F15D068211C4B01FB04315046FFF7FCFE07EB87038C
S325000126C0194A02EBC3031B79184B1B6813B151463846984705B0BDE8F08F09EBC9090F4BB2
S325000126E003EB8903987D5146FFF71CFFDFE7682606FB04F008300A4D0321284400F028FC20
S3250001270006FB09531A7D42F0010202F0FD026FF382021A75CBE700BF74ADFF1F241B020032
S32500012720E89AFF1F009BFF1FAC1A0200300000202DE9F04198B080460646224B53F8203078
S3250001274058690269002A3AD000241E4F2AE0009B23F000420492DB0F9DF8182063F30002E2
S325000127608DF818209DF8040008F036FE02468DF859009DF805308DF85B309DF806308DF880
S325000127805C3002A90DF119000FF040F904A94046FFF7F6FE0134A4B257F826305869026933
S325000127A0944208D2DA68694600F01CFF05460028CDD00428EED1284618B0BDE8F0810525F5
S325000127C0F9E700BFFC8EFF1F384B9B88002B6BD02DE9F04F89B00025354EDFF8D8A0334F98
S325000127E021E09DF817300093BDF81430BDF8122003990698FFF7FAFC08F101083B8843450F
S325000128000CD908EB48030BEB830393E8070089E807009DF81030A342EED1E2E70135BA885E
S32500012820ABB29A423DD9ACB204EBC40306EB83031B6A002BF2D004EBC40306EB83035B7D40
S32500012840002BEBD1682303FB04A31B7D13F0020FE4D1682303FB04A30322996807A800F004
S3250001286087FB04EBC40306EB83031A6A079B9A42D4D8682303FB04A31A7D42F006026FF391
S3250001288000021A753B88002BC8D0682303FB04A3213303934FF00008DFF81CB00DF11009FF
S325000128A0AFE709B0BDE8F08F704700BF74ADFF1F241B0200E89AFF1FB41B020038B5084BF7
S325000128C09B784BB10024064DE0B2FFF731FF0134AA78E3B29A42F7D8FFF776FF38BD00BFFD
S325000128E074ADFF1F2DE9F04F83B08D4B9B88002B00F011818B4D00248B4EA846884F56E092
S3250001290003230A2229690DF1070000F04DFB00286AD19DF80730012B66D1032105F11000D3
S3250001292000F016FB04EBC40306EB8303DB684FF0010B62E01FFA89F2002A00F081809AF851
S3250001294021109AF8003099427DD16823754903FB0413013A13FA82F0834271D093F8222069
S3250001296013F8011F9142F7D06DE023F0FF03BA7B1343CAF818307FE001238AF8633004EB0D
S32500012980C40306EB83035B7A8AF8643004EBC40316F8230005F11801FFF7C4FD002800F042
S325000129A09A8001346835BB88A34240F2B48004EBC40306EB83035B7D002BF2D0682303FB1B
S325000129C004831B7D13F0100FEBD104EBC40306EB8303187D08F000FD8146682303FB048365
S325000129E01B7D13F0080F8BD104EBC40306EB8303DB68002BD5D04FF0000BAA4604EBC40392
S32500012A0006EB8303DA680323E9680DF1070000F0CBFA18B99DF80730012B14D004EBC40362
S32500012A2006EB83031A690323DAF80C100DF1070000F0BAFA20B99DF80730012B3FF47AAFAB
S32500012A40BBF1000FADD004EBC40306EB83035B68CAF818303A7B7AB104EBC40206EB820233
S32500012A60127A4AB104EBC40206EB82025268D2B2797B8A423FF479AF04EBC40206EB82031A
S32500012A80187A682303FB048393F8201060F3000183F820108AF8619016F8223003EB83038C
S32500012AA0224A02EBC30393F82730002B3FF46EAF04EBC40306EB83031B7ADBB2022B3FF4E4
S32500012AC05BAF04EBC40306EB83031B7ADBB2032B7FF45CAF50E7682303FB04831A7D6FF3AA
S32500012AE0C3021A751FFA89F27AB1682101FB04F10C48431801300144013A11FA82F193F8D9
S32500012B00212003F8012B8B42F9D1032105F10C0000F01EFA45E7FFF76BFC03B0BDE8F08F21
S32500012B2074ADFF1FE89AFF1F241B0200AC1A0200014B1860704700BF3000002084B070B5C3
S32500012B4004AC84E80F0000238DF81C308DF81D309DF8543005939DF85530012B03D0BDE80E
S32500012B60704004B070479DF866300B939DF867300C939DF865300D939DF869300A939DF875
S32500012B8064300E939DF87B30012B24D00C248DF81C409DF857001A494B1C1D310025012638
S32500012BA013F8012C824204BF1C78354602338B42F6D10DB18DF81C409DF81C1004A808F073
S32500012BC09BFB9DF81D1004A808F0D8FB15A904A800F0ACFCC3E79DF8773010939DF8783057
S32500012BE011939DF8763012939DF87A300F939DF8753013930D238DF81C308DF81D30DBE7F4
S32500012C00F42102002DE9F04387B03B4B25221A8002229A7003229A8000249C711C819C7266
S32500012C20364D374F1E4619E0CB005A1805EB8202907F127F0B4405EB83035B7F4FF0680C84
S32500012C400CFB01714FF0000CCDF800C02131FFF7CDFA0134B288A3B29A4208D9A1B201EB55
S32500012C60C10305EB83035B7F002BF2D0DCE70025DFF89080214F224E20E04FF0680909FBE9
S32500012C8004619DF813300093BDF81030BDF80E2021310598FFF7AAFA09FB046999F81430B6
S32500012CA043F0040389F81430682303FB0464237D6FF3410323750135252D19D005EB450396
S32500012CC008EB830393E8070006AB03E907009DF80C4004EBC40307EB83031B6A002BCCD1F2
S32500012CE0682303FB04631A7D6FF382021A75DBE707B0BDE8F08300BF74ADFF1F241B020001
S32500012D00E89AFF1FB41B020030B593B004460D464822002168460EF087FE064823011A1915
S32500012D2000EB820295606946104608F05DFA13B030BD00BFECADFF1F00230B6002280CD812
S32500012D4010B50C4600EB00104422044901EB800120460EF05BFE246010BD7047ECADFF1FBE
S32500012D6010B5144C21460020FFF7E6FF124B1A7862605B78DBB2012B0ED0104C21460120C6
S32500012D80FFF7DAFF0C4B93F82820626093F82930DBB2012B07D010BD0020FFF7F9FA002007
S32500012DA0FFF7EAFAE9E70120FFF7F2FA0120FFF7E3FAF0E7ECADFF1FAC1A020030AEFF1F19
S32500012DC070B584B005460E461446002303931378022B04D16378022B0FD104B070BD012367
S32500012DE0836013788DF80C300B6801938B68DB43029301A908F042FAECE70223AB60637834
S32500012E008DF80C3073680193F368DB43029301A9284608F033FAE0E72DE9F04F85B0834616
S32500012E200024ADF80C40484D0746484EA04623E004EB840306EBC303DB78DBB21E2B36D9B0
S32500012E40012385F8403032E0C1F80480C1F8008040F2FF738B606FF06043CB608DF80C8005
S32500012E6001238DF80D3003AA0198FFF7A9FF013444351437022C60D0A24604EB840206EBDC
S32500012E80C20316F8322001956A609A7885F8412085F840805B78DBB2012BE8D104EB8403BE
S32500012EA006EBC30393F82730DBB2012BC0D04FEA8A0909EB0A0316F833104246019808F0F2
S32500012EC027F93946D14406EBC90999F80430DBB2012BB9D0BBF1000FB6D03B7C042BB3D0C3
S32500012EE0032B1AD8DFE803F002070D138DF80C808DF80D80B7E78DF80C8001238DF80D3010
S32500012F00B1E701238DF80C308DF80D30ABE702238DF80C308DF80D30A5E7C7F80480C7F8A3
S32500012F20008040F2FF73BB606FF06043FB608DF80C8001238DF80D3095E70621002000F044
S32500012F4023F905B0BDE8F08FECADFF1FAC1A020000B583B000238DF8073008F089FE10B1EF
S32500012F6001238DF807309DF8070003B05DF804FB30B583B004460D4603238DF8073000230D
S32500012F8000931146684608F073FE30B101238DF807309DF8070003B030BD0099491B2160AE
S32500012FA000238DF80730F4E730B583B00446154603228DF80720002200921A466846FFF70A
S32500012FC0D7FF8DF807009DF807302BB9009BAB422CBF0123002323709DF8070003B030BD4F
S32500012FE0F0B49DF81070012A75D9032F77D802F10045013D30F915409C423ADA023A96B2AD
S3250001300031F91520022F24D0E41A012F53D07300C5180B44B3F9023031F916105B1A04FB93
S3250001302003F4B5F9023030F91600181A94FBF0F4101B2C4B9842B8BF184647F6FF739842F4
S32500013040A8BF1846023FFFB2012F45D820EAE07042E030F9162031F91600101A181A214B82
S325000130609842B8BF184647F6FF739842A8BF1846ECE7861CB0F90240A342C8BF012514DD69
S325000130800135ADB2AA4212D036F9024FA342F7DC6E1EB6B231F91520B0F900509D42C4BFE0
S325000130A0B1F900202C46E41AAFE70125F0E7002214461646A9E7B0F900509D42A7DDB1F9CE
S325000130C00000084B9842B8BF184647F6FF739842A8BF184600E0002000B2F0BC7047002064
S325000130E0FAE700BF0080FFFF08B50F4B20F00040586083F8481051B1531E0C48013952FA6C
S3250001310081F213F8011F00F8011F9342F9D1084B187800231A46074900F2045008F0F6FF6A
S32500013120003018BF012008BD380000203F0000203400002000000D0508B500231A461946DF
S3250001314040F6090008F0E2FF003018BF012008BD08B10320704708B50B6803F1080293F817
S3250001316048105868FFF7C0FF002008BD08B509F099F8002008BD08B500F1080201790068D0
S32500013180FFF7B2FF08BD00002DE9F04184B005460E460AF0E7FB80B937480AF065FD037837
S325000131A0364A1370022B1ED8344B187801281FD90124204604B0BDE8F0810AF0D3FB01286C
S325000131C003D00AF0CFFB0E2803D1CB200AF04CFDE5E70AF0C7FB0F28F7D00AF0C3FB1028A3
S325000131E0F3D00020DBE74F2116200EF007FBDBE700EB8003224A02EBC3035C78E4B2012C97
S3250001320001D00124D5E713468200111803EBC10191F8278018F1000818BF4FF00108CF789A
S32500013220FFB21E2F94BF002701278DF808508DF809808DF80A70134B039302AB40F20552D3
S32500013240114900F2045008F061FF0028B1D18DF804608DF805808DF80670084B187801AB48
S3250001326040F20652094900F2045008F04FFF041C18BF01249DE700BFEE009D0034000020A1
S32500013280AC1A02003800002005050E0506050F05F0B58DB0A1F12003DBB2072B17D90E4631
S325000132A0A1F12803DBB2062B1AD9A1F12F03DBB2052B17D9A1F13503DBB2042B14D9A1F123
S325000132C03A03DBB2032B8CBF0E46012600E00526754B1A7843689A4208D002200DB0F0BDE1
S325000132E00426F5E70326F3E70226F1E70AF03AFB78BB6E480AF0B8FC044603AF00F1200CDF
S325000133003D4620686168A268E3680FC510342F466445F5D123882B809DF80C30012B2FD02F
S325000133200AF020FB002862D1B3B2DA4303EB02239BB21A0292B242EA13224FF002115C487D
S325000133400AF022FDB0FA80F04009002872D10120C4E70AF007FB012803D00AF003FB0E288D
S3250001336004D14FF494700AF07FFCC5E70AF0FAFA0F28F6D00AF0F6FA1028F2D00020BBE778
S3250001338000238DF80C3003AA0092212201928DF808306B4640F60702464940F6090008F0BA
S325000133A0B5FE9DF808308DF82D300AF0DBFA30B903AA4FF022113D480AF086FCB0E70AF03B
S325000133C0D1FA012803D00AF0CDFA0E2806D103AA22214FF494700AF077FCA1E70AF0C2FA6F
S325000133E00F28F4D00AF0BEFA102899D1EFE70AF0B9FA012803D00AF0B5FA0E2810D1B3B2D3
S32500013400DA4303EB02239BB21A0292B242EA13220221D0200AF0B8FCB0FA80F0400994E7C8
S325000134200AF0A0FA0F28EAD00AF09CFA1028E6D000208AE70AF096FA98B9B6B2F34306EB87
S325000134400326B6B2320292B242EA16224FF0021119480AF099FCB0FA80F0400980F00100E2
S325000134603CE70AF07FFA012803D00AF07BFA0E2810D1B6B2F34306EB0326B6B2320292B295
S3250001348042EA16220221D2200AF07EFCB0FA80F04009E3E70AF066FA0F28EAD00AF062FA6A
S325000134A01028E6D00020D9E7340000201201AA00AC005B0007081708AE005D0010B58AB0E7
S325000134C0184B1C7843689C4202D002200AB010BD0B7BADF81330CB7A8DF815300B7C8DF861
S325000134E016304B7B8DF817308B7B8DF81830137BADF81C30D37A8DF81E30137C8DF81F3018
S32500013500537B8DF82030937B8DF8213001AB4FF40062054940F6090008F0F8FD003018BF4B
S325000135200120D3E7340000200008180838B505460C46C9781D2902D8FFF7AAFE38BD01F0BE
S3250001354071F8212809D9E3781F2BF7D004F11602611D2846FFF7B2FFF0E7E1782846FFF730
S3250001356097FEEBE7034658B161B16AB100201860196158609860187558759875DA60704744
S32500013580012070470120704701207047F8B504460F46164608F08AFD257D0DBB012323754F
S325000135A0236801332269934206D903250023237508F07EFD2846F8BDE36860681A4639469B
S325000135C000FB03600EF022FA6368013363602269934224BF00236360236801332360E5E773
S325000135E00225E5E7F8B504460E46174608F05EFD657DF5B901236375236833B90425002387
S32500013600637508F055FD2846F8BDE368A1681A4601FB037130460EF0F9F9A3680133A36092
S325000136202269934224BF0023A3602368013B2360E5E70225E5E770B5457DA5B916460B461F
S32500013640044601224275026822B9042500236375284670BDC16880680A4600FB016118461F
S325000136600EF0D4F9F2E70225F2E738B504460D4608F01CFD2268AA420FD301236375A368A5
S325000136805B1906D22169994298BF5B1AA360551B2560002363751C4600E0012408F008FD4F
S325000136A0204638BD2DE9F04F87B0524C2146002007F0ACF9002007F0DFF92146012007F0ED
S325000136C0A5F9012007F0D8F900230493059301228DF814200293039300930193464C04F551
S325000136E048774FF0440A4FF0590998461FE0514648460EF083F823E006AB03EB850545F8F2
S3250001370018BC11E0CDF810804FF0010B8DF815B08DF8168004AA3146284607F0D7F906ABCD
S3250001372003EB850545F818BC1434BC422ED0A346257806AB03EB850353F8106C012ED6D864
S325000137409BF80C30002BEFD106AB03EB850353F818BCBBF1000FD5D0CDF810B08DF8158063
S3250001376001238DF8163004AA3146284607F0AEF90BF1010BBBF1070FBED906AB03EB850598
S3250001378045F8188C013645F8106CCDE74FF47A61002007F08FF900231A461946184607F0A9
S325000137A0B7F94FF47A7300220121104607F0B0F94FF47A61012007F07DF900231A4619465A
S325000137C0012007F0A5F94FF47A7300220121084607F09EF9002007F063F9002007F056F903
S325000137E0012007F05DF9012007F050F907B0BDE8F08F00BF582702007C1D02002DE9F04FE8
S3250001380085B0484C2146002000F0ECFF2146012000F0E8FF4FF408700AF026FA028846F67C
S32500013820B3539A4205D100230393DFF808914A460AE0002001F0D2F8012001F0CFF8F2E799
S3250001384001331432282B09D0117B0029F8D1117804A800EB410121F8043CF1E700250295EE
S325000138604C46DFF8D480304E2F4621E04B46002203E001321433282A0ED05FFA82FE1978E6
S325000138808142F6D19AF801B059788B45F1D1197B0029EED105F806E09AF80D3098F8002013
S325000138A09A4238BF88F8003001351434282D24D0A2462078237B002BD8D16378ADF806300F
S325000138C08DF8047004AB03EB400333F8042CABB29A4204BF01238DF8043004AB03EB400BEC
S325000138E03BF808AC5FFA8AF1A95501AA01F03EF80AF1010A2BF808ACD6E700220B492720DF
S3250001390005F0B8FB00220A49282005F0B3FBFFF7C9FE272005F0C6FB282005F0C3FB05B02E
S32500013920BDE8F08F34250200B8AEFF1F9D390100A93901007C1D0200980000202DE9F8431F
S3250001394081460E46114C0025DFF84C80104F03E001351434282D0DD014F80C3CB342F7D11D
S325000139602378002BF4D108EB4502795D304601F029F8EDE7484607F089F8064A52F8263053
S32500013980013342F82630BDE8F88300BF881D0200B8AEFF1F10B0FF1FE0AEFF1F08B50021EA
S325000139A00846FFF7CBFF08BD08B501210846FFF7C5FF08BD38B505460C46084605F07EFB3B
S325000139C0034B53F82550204605F06CFB284638BD10B0FF1F08B500EB8002034B03EB8203E4
S325000139E05968FEF74DFB08BD7C1D02002DE9F0410446884616461D461946FFF7DBFF33687A
S32500013A00834201D1BDE8F0810746012388F80030284605F053FB114A0023DFF84CE0104847
S32500013A2003E001331432282B0DD012F80C1CA142F7D111780029F4D103EB830130F813C031
S32500013A402EF811C0EDE7074A52F82430013342F82430284605F026FB3760D3E7881D020067
S32500013A60E0AEFF1F8C00002018B0FF1F2DE9F04F89B00390029100208DF81F008DF81E00E6
S32500013A80634D27232A460DF11F01FFF7AFFF614C282322460DF11E010120FFF7A7FF2A6827
S32500013AA05D4B1B68D31A049322685C4B1B68D31A05939DF81F30012B27D09DF81E30012B01
S32500013AC023D0049B0F2B1DD9059B0F2B1AD9504B1A68514B1A604F4B1A68504B1A60039950
S32500013AE00B780133DBB20B704D4A12789A4205D200230B704B4A136801331360039B1878A9
S32500013B00FEF720FB09B0BDE8F08F474C474F484DDFF82C9104F5487B1EE02B886B802E4693
S32500013B20B5F80280029B23B192F810A0BAF1000F2AD1328957F8043F9B1A43443B603D4A44
S32500013B40A2FB03384FEA1818A6F8088014340A3509F101095C45B4D02246237B002BDCD06A
S32500013B60039B1978637B9942D9D1049B0F2BD6D9059B0F2BD3D999F8003003EB83032C49F4
S32500013B8031F813306B80CAE7D08900F222200AF06BF878B1B0F90030B3F1FF3F0AD0AAF1D3
S32500013BA0030ABAF1070F30D8DFE80AF0072F2F2F122F1B1B0023F380BBE703220092B5F9BF
S32500013BC00230811DFFF70CFAE880B6F80680B0E703220092B5F90230811DFFF701FAE88051
S32500013BE0F3E76A8803FB02F3134AA2FB0323B0F90420124981FB0201D217C2EBA11202EB02
S32500013C00934323EAE373EB80DFE70023EB80DCE784000020880000209C000020A00000201A
S32500013C2098000020940000207C1D02006CAFFF1F18B0FF1FC94216B283DE1B43D34D621033
S32500013C40B8AEFF1F70B504460D46094B1B785BB1084B1B683BB9074E29462046FFF706FF35
S32500013C603368002BF8D070BDFFF700FFFBE700BF9800002094000020F0B593B004460D46FB
S32500013C8016461F4600EB0012224B03EB82039E6003F090FB204B184218D0204B03EBC40237
S32500013CA050600321104607F0E3FFEDB1042D0BD12046FEF779FB04EB8403194A02EBC303F4
S32500013CC01B79DBB2012B0BD013B0F0BD134800EBC40300225A600321184607F0C9FFE4E750
S32500013CE02046FEF725FDEFE739463046FFF730FA0328E9D104EB04106946064B03EB8000FF
S32500013D0007F072FA69462046FEF7FEFB6846FFF732FAD9E7ECADFF1F00FC2000A8B1FF1F5C
S32500013D20AC1A02000A2900D070472DE9F04184B0044603F03FFB06462D4B184202D104B063
S32500013D40BDE8F0812B4800EBC4004660032107F08FFF16F0400F04D116F0080F32D0002567
S32500013D6020E0254B03EB04139B681B68042BF3D90425214B03EB041805E00135D8F8083084
S32500013D801B689D42E8D2EFB23946204603F000FB0028F2D03946204603F014FBEDE70135B1
S32500013DA0032D0FD0EFB23946204603F0F1FA0028F5D03946204603F005FB29462046FEF7FA
S32500013DC0A3FFECE70D4B93E8070004AB03E9070003EB840050F80C4C204603F041FD16F438
S32500013DE0001FACD0236A43F400132362A7E700BF00FC2000A8B1FF1F1490FF1F381A0200CF
S32500013E00002343618361C3610362042280F82420034A026042608360C360022303747047DB
S32500013E20355A9D182DE9F04FA5B081466C4B1B783BB96C4D00246C4EDFF8B0B1DFF8B0A191
S32500013E4077E0674B00221A70FEF7DCFEFEF788FF1AA8FFF7D5FF1AA8FEF7DEFF614F624CDD
S32500013E600DAE04F1200C354620686168A268E3680FC510342E466445F5D12068616803C629
S32500013E806C4607F110050FCD0FC40FCD0FC40FCD0FC42B68236097E80F00FEF74FFEA5F1D3
S32500013EA04007514B03F128040DAE03F1480C354620686168A268E3680FC510342E4664459F
S32500013EC0F5D12068616803C66C4607F154050FCD0FC40FCD0FC40FCD0FC42B68236007F1DD
S32500013EE044030FCBFEF72AFEA3E7A3001993234416F83330012139F8230007F0A7FB199A0A
S32500013F00904416F8383009EB83030121588807F09DFBC7F810B00021384607F0D7F9C7F8A1
S32500013F2014A00021384607F0DCF901344435022C53D0A04604EB840306EBC30216F83330D9
S32500013F402F466B605378DBB2012BEED104EB840316F8333039F82330592BDAD004EB8403C8
S32500013F6016F8333009EB83035B88592BD1D004EB840316F83330DBB2012B19D05AB2002A88
S32500013F80B3D0022BC5D1A3001993234416F83330012139F8230007F059FB199A904416F857
S32500013FA0383009EB83030121588807F04FFBB0E7A3001993234416F83330012139F82300A1
S32500013FC007F044FB199A904416F8383009EB83030121588807F03AFB9BE725B0BDE8F08F84
S32500013FE0088FFF1FECADFF1FAC1A0200793C0100253D01002DE9F0410746154D0024154EF0
S32500014000A04603E001341035082C1FD004EB44039B5DBB42F6D12A88002AF3D0AB8801333B
S325000140209BB2AB8069880131B3EB610FEADBA5F80480AB7A5B425BB2AB7213FB02F2E9888B
S32500014040114489B2A0B207F085FCDBE7BDE8F081C0B1FF1F8021020008B50020FFF7CAFF59
S325000140604FF40071002003F06FFF08BD08B50120FFF7C0FF4FF40071012003F065FF08BDBB
S3250001408008B50220FFF7B6FF4FF40071022003F05BFF08BD08B50320FFF7ACFF4FF4007172
S325000140A0032003F051FF08BD08B50420FFF7A2FF4FF40071042003F047FF08BD08B505209E
S325000140C0FFF798FF4FF40071052003F03DFF08BD08B50620FFF78EFF4FF40071062003F04C
S325000140E033FF08BD08B50720FFF784FF4FF40071072003F029FF08BD7047704700B583B054
S3250001410002230093044B054A0549064802F09AF803B05DF804FB00BFE4260200EC2602003C
S32500014120E026020064B3FF1FF0B583B000258DF807502B462A4A01212A4801F065FE294626
S32500014140284601F06FFE592007F0E4F9FEF7F4FFFFF7D4FF07F086FD009507F037FDFFF75E
S325000141604DFB082007F0CEFA0F2007F083FB06F0D9FEFFF7C1FFFDF7C3FF1B4807F06CFD69
S325000141801A48FEF7D5FC01210DF10700FFF75AFDFDF7FEFEFDF7FAFE154F164E01E0FEF702
S325000141A0A1FB384607F03AFF0321684607F060FDFEF7DCFF01210DF10700FFF757FCFEF753
S325000141C07DFBFFF79AFFFDF7DDFF009C621B33889A42E4D3FDF7F4FEFDF7D9FE2546DEE7B9
S325000141E0B40200204490FF1F7F2001007D20010001000080748CFF1F022801D90420704734
S325000142002DE9F0410B4D470007EB000805EBC80898F80410404607F093FCD8F81430D8F863
S325000142201020D8F80C10404607F068FC0020BDE8F08100BF0C8FFF1F7047704770470000A7
S32500014240F8B50446032A0BD8DFE802F0020B1F2800EB40041B4B03EBC4042079FFF7ECFF7E
S32500014260F8BD194E0644174D47003B1805EBC30331461879FFF7E1FF3C4405EBC4050122E3
S325000142803146287905F0CEFFEAE700EB40040D4B03EBC4042079FFF7D1FFE1E70B8E9BB222
S325000142A0002BDDD0094B53F820400949204606F070FA0028D4D101220549204606F031FA43
S325000142C0CEE700BF0C8FFF1FA4000020502202001500030008B513460A4601460020FFF797
S325000142E0AFFF08BD08B513460A4601460120FFF7A7FF08BD08B513460A4601460220FFF750
S325000143009FFF08BD272817D838B500EB80030B4A02EB83039D680DB9002038BD00EB800285
S32500014320074B03EB42035C88FFF754FB00FB04F0B0FBF5F080B2F0E7002070477C1D0200CE
S3250001434018B0FF1F08B500EB8002094B03EB82031B7C43B1272809D800EB8000054B03EB1B
S325000143604000C08808BDFFF7CDFFFBE70020F9E77C1D020018B0FF1F08B5FEF79FFA08BDB4
S3250001438008B5FEF775F808BD08B5FEF74FF808BD38B505460C4609F0E5FA80B92A464FF02A
S325000143A01E111E4809F090FC09F0DCFAF0B922464FF014111A4809F087FC002038BD09F0AC
S325000143C0D1FA012803D009F0CDFA0E2805D12A461E21F42009F078FCE6E709F0C3FA0F2859
S325000143E0F5D009F0BFFA1028DED1F0E709F0BAFA012803D009F0B6FA0E2805D12246142186
S32500014400E02009F061FCD8E709F0ACFA0F28F5D009F0A8FA1028D0D1F0E700BFD0007F008C
S32500014420BC006B0008B5072800F2EE80DFE800F004203E5B7895B2CF09F094FA10B909F0B7
S3250001444013FC08BD09F08EFA012803D009F08AFA0E2803D1002009F007FCF2E709F082FA13
S325000144600F28F7D009F07EFA1028F3D00020E8E709F078FA20B94FF0021009F0F5FBE0E797
S3250001448009F070FA012803D009F06CFA0E2803D1022009F0E9FBD4E709F064FA0F28F7D03E
S325000144A009F060FA1028F3D00020CAE709F05AFA18B9564809F0D8FBC3E709F053FA012835
S325000144C003D009F04FFA0E2803D17D2009F0CCFBB7E709F047FA0F28F7D009F043FA102815
S325000144E0F3D00020ADE709F03DFA18B9484809F0BBFBA6E709F036FA012803D009F032FA27
S325000145000E2803D1952009F0AFFB9AE709F02AFA0F28F7D009F026FA1028F3D0002090E7EB
S3250001452009F020FA18B93B4809F09EFB89E709F019FA012803D009F015FA0E2803D10520CC
S3250001454009F092FB7DE709F00DFA0F28F7D009F009FA1028F3D0002073E709F003FA18B934
S325000145602D4809F081FB6CE709F0FCF9012803D009F0F8F90E2803D1AA2009F075FB60E79F
S3250001458009F0F0F90F28F7D009F0ECF91028F3D0002056E709F0E6F918B9204809F064FB95
S325000145A04FE709F0DFF9012803D009F0DBF90E2803D1B22009F058FB43E709F0D3F90F28D6
S325000145C0F7D009F0CFF91028F3D0002039E709F0C9F918B9124809F047FB32E709F0C2F923
S325000145E0012803D009F0BEF90E2803D1C92009F03BFB26E709F0B6F90F28F7D009F0B2F98F
S325000146001028F3D000201CE700201AE768004E006C004F006E00530088004600920055006D
S32500014620EF009E0010B50420FFF7FCFE0488240A0420FFF7F7FE008844EA002080B210BD6F
S3250001464008B500EB4002124B03EBC203DB7A012B0AD0A0F159039BB20D2B0AD80D4B03EB64
S32500014660400000F8B11C08BD5828F2D806F0EEFFF9E7094B03EB400040780828F3D011B965
S3250001468000F040F8EFE74FF47A7100F03BF8EAE70084FF1F588CFF1FB020020000B583B095
S325000146A000238DF8073000EB4002134B03EBC203DB7A012B0CD058280CD8104B03EB40008C
S325000146C0407808280DD00DF1070107F0F9F908E058280BD90A4B03EB400010F8B13C8DF8D6
S325000146E007309DF8070003B05DF804FB0DF1070106F086FFF5E700BF0084FF1FB020020049
S32500014700588CFF1F08B507F073F908BD4FF0E023D3F8882D42F47002C3F8882DD3F8342FA3
S3250001472022F08042C3F8342F054B064A5A605A6842F220121A604FF6FF729A60704700BF5E
S325000147400020054020C528D91B4A1369C3F30343591C1369C3F30363013B052B2BD8DFE8E7
S3250001476003F025030D2A2A12134BD3F8083203F00103002B114A18BF134618E00E4BD3F878
S3250001478008330F4B13E00C4AD2F80836D2F80826C2F3044202F110000A4A02FB00F2C3F33D
S325000147A0022301335B00B2FBF3F300E0054BB3FBF1F3054A136070470040064000127A005E
S325000147C0006CDC02005A6202548FFF1F4FF0E021D1F80C2D92B2024B1343C1F80C3D7047E7
S325000147E00400FA0570B584B006460D465D4B53F8204041238DF80C3042238DF80D300023F5
S32500014800029304AB034402A913F8040C01F082FB2B78029ADA400292226C22F060025B0187
S3250001482003F06003134323646B78002B08BF0123626C22F0FF0213436364226C22F00C0299
S32500014840AB789B0003F00C0313432364226C22F00302EB7803F0030313432364D4F890205A
S3250001486022F040022B799B0103F040031343C4F890306B79302200924FF4405201923A4AE1
S32500014880926904A901EB860151F8101C22EA0102002E43D0012E4FD0334B9A61AA79012125
S325000148A000914FF4807101919B6904A901EB860151F8101C23EA0103002E39D0012E45D075
S325000148C0294A9361D4F8903023F00403EA79002A14BF042200221343C4F89030D4F89020CE
S325000148E022F003022B7A03F003031343C4F89030D4F8943023F008036A7A002A14BF082271
S3250001490000221343C4F8943036B9AB7A1BB3164A536843F40023536004B070BD1B0103F09E
S325000149203003134310498B61AA798B6923F0010302F001021343C3E71B0303F44053134381
S3250001494009498B61AA798B6923F48073120202F480721343B4E7044A536823F4002353600E
S32500014960DAE700BF5C2202000080044030B4134B53F8204050881578A0F570639BB2052B35
S325000149800BD80F4A536823F4E02353605368A0F5706043EA00405060152054F8213000F04D
S325000149A01F0023F05F030343002D14BF40220022134344F8213030BC704700BF5C220200CD
S325000149C000800440044B53F82030123153F82130C3F30B03138070475C2202002DE9F04768
S325000149E082B04E4B53F82040D4F89460C6F38006D4F8943003F00309D4F89080656CEDB260
S32500014A00D4F8943043F00303C4F89430D4F8943043F00403C4F89430D4F8903023F040031A
S32500014A20C4F89030636C23F0FF0343F00C0363640023C4F8B430C4F8B830C4F8BC30C4F83B
S32500014A40C030C4F8C430C4F8C830C4F8CC3041228DF8042042228DF805200093276C4FEACA
S32500014A60571A02AB1844694610F8040C01F052FA009B0AF0030A23FA0AFA294A924512D9B9
S32500014A80284A934208D9284A934245D9274A934294BF0323002300E00123226C22F060029A
S32500014AA042EA43132364D4F8943043F08003C4F89430D4F8943013F0800FFAD1236C23F091
S32500014AC0600307F060071F432764D4F8943023F00403002E18BF04261E43C4F89460D4F86B
S32500014AE0943023F0030349EA0303C4F89430D4F8903023F0400308F0400848EA0303C4F803
S32500014B009030002D08BF0125636C23F0FF031D43656402B0BDE8F0870223BEE75C2202008F
S32500014B2040787D0181F0FA0203E1F50507C2EB0B074B5B69DBB2042B06D0802B06D0012BD9
S32500014B400CBF012004207047022070470320704700E00740044BD3F8000110F080701CBFC7
S32500014B60024B1868704700BF0040064050B2FF1F10B584B00C46002944D0444BD3F8003132
S32500014B80C3F34063002B7CD1404AD2F8001121F40001C2F800114FF08061C2F800113C4A86
S32500014BA00021116000286FD0627A120202F4E062217A01F007010A433448C0F80421E27938
S32500014BC0120102F03002A179C90001F008010A436179890001F004010A43C0F8082122794B
S32500014BE0012A2FD051B211B3022A36D02268284B1A60284CFFF7AEFF00283DD1002C39D092
S32500014C00013CF7E700238DF804308DF80C3001228DF808208DF809208DF805208DF80630F2
S32500014C2002238DF807301C4B00936C46A5E7227B002A18BF4FF4000343F00103134AC2F822
S32500014C400031D3E7227B002A18BF4FF4000343F001130E4AC2F80031C8E7227B002A18BFA7
S32500014C604FF4000343F4403343F00103074AC2F80031BBE7032005E0002C14BF00200320DE
S32500014C8000E0022004B010BD0020FBE70040064050B2FF1F88E7300000127A00074BD3F89A
S32500014CA0000210F0807007D0D3F8080200F001000028034B18BF1846704700BF00400640B7
S32500014CC000127A0010B582B00A4600293DD02D4BD3F80032C3F34063002B4DD12949D1F872
S32500014CE0004224F40004C1F800420024C1F80042002844D09178090201F4E061507800F0F7
S32500014D00070001431F48C0F80412117801F00101C0F80812507991791279A24214BF032284
S32500014D200122A0420CBF184604200243A14218BF4FF400031343134AC2F800326424FFF7B8
S32500014D40ADFFA0B98CB1013CF9E700228DF8042001238DF805308DF806208DF801308DF85E
S32500014D6002308DF800306A46B1E7032005E0002C14BF0020032000E0022002B010BD002012
S32500014D80FBE700BF00400640044BD3F8000310F080701CBFD3F80833014870470040064071
S32500014DA0006CDC0210B582B00C46002933D02A4BD3F80033C3F34063002B47D1264AD2F8E4
S32500014DC0001321F40001C2F800134FF08061C2F8001300283DD0A278120202F4E062617875
S32500014DE001F007010A431C49C1F80423227802F00302C1F80823A1796279002A14BF012297
S32500014E000922002918BF4FF400031343124AC2F8003314240EE001238DF8053000228DF8D0
S32500014E2006208DF801308DF802308DF800206C46BDE7013CFFF7A8FF18B9002CF9D1032019
S32500014E4005E0002C14BF0020032000E0022002B010BD0020FBE700BF0040064008B50F4B45
S32500014E60D3F8003613F0807301D1184608BDFFF771FE03460028F8D0084AD2F80806C0F3C4
S32500014E8002200130B3FBF0F0D2F80836C3F30443103300FB03F04308E7E700BF0040064096
S32500014EA030B585B00D4699B13D4BD3F80046C4F34064002C70D1D3F8002622F40002C3F80F
S32500014EC000264FF08062C3F80026A0B9002064E000238DF804308DF80B3001228DF808207A
S32500014EE08DF809208DF8053007228DF806208DF8073001ADD8E7FFF72DFE6B791B0203F42D
S32500014F00E0632A7902F0070213432549C1F804366B781B0203F4E063AA78120402F4F81280
S32500014F201343C1F808362B78012B16D05AB24AB1022B1DD04FF47A74FFF790FF38BB24B3C7
S32500014F40013CF9E7EB79002B18BF4FF4000444F00104134BC3F80046ECE7EB79002B18BFAF
S32500014F604FF4000444F001140D4BC3F80046E1E7EB79002B18BF4FF4000444F4403444F0EC
S32500014F800104074BC3F80046D4E7032005E0002C14BF0020032000E0022005B030BD00BF4A
S32500014FA0004006402DE9F04180460D468C7801344E7806FB04460F7807FB0447CB78013B67
S32500014FC0052B1CD8DFE803F00312151B1B18FFF7C1FD0009B8F1020F48D0B8F1030F78D0E2
S32500014FE0B8F1010F0DD00020BDE8F081FFF756FEEFE7FFF7C9FEECE7FFF730FFE9E7002019
S32500015000E7E7EA7802EB4201544B53F821301B0904FB03F48442C0F08F800B464F4901EB7A
S3250001502083035B681B0906FB03F68642C0F0868002EB420301EB83039B681B0907FB03F7BD
S3250001504087427DD3AB781B0403F47023120602F0706213432A7802F00F0213436A78120142
S32500015060D2B213433E4A53610020BDE7EA7802EB42013C4B53F821301B0904FB03F48442BA
S3250001508060D30B46374901EB83035B681B0906FB03F6864258D302EB420301EB83039B6818
S325000150A01B0907FB03F7874250D3AB781B0403F47023120602F0706213432A7802F00F023A
S325000150C013436A781201D2B21343254A936100208AE7EB7803EB4301234A52F82120120908
S325000150E004FB02F4844233D30A461F4901EB82025268120906FB02F686422BD303EB4302F9
S3250001510001EB82029268120907FB02F7874223D3AA78120402F470221B0603F0706313434C
S325000151202A7802F00F0213436A781201D2B213430B4AD361002057E7012055E7012053E7FF
S32500015140012051E701204FE701204DE701204BE7012049E7012047E7012045E75823020086
S3250001516000400640AC2302000423020038B50546FFF7DEFC2946FFF715FF044678B9E8784C
S325000151800A220849013A0B69C3F30363984203D0002AF7D1032402E0002A08BF032420469A
S325000151A038BD00BF0040064010B504461B4B1B69C3F30363013B052B1ED8DFE803F0031466
S325000151C0171D1D1AFFF7C6FC144B1B69C3F303430133B0FBF3F0012C10D063B213B1022CF0
S325000151E014D0002010BDFFF759FDEDE7FFF7CCFDEAE7FFF733FEE7E70020E5E7074B1B6970
S32500015200C3F303130133B0FBF3F0EBE7034B1B6903F00F030133B0FBF3F0E3E7004006403E
S3250001522008B50F4B1B6AC3F30363062B15D8DFE803F004080B0E141411000220FFF7B4FFAE
S3250001524008BDFFF787FCFBE7FFF728FDF8E7FFF79BFDF5E7FFF702FEF2E70020F0E700BF3E
S325000152600040064008B519B1012931D0002008BD0438032857D8DFE800F010021922FFF77A
S3250001528083FD02462A4BD3F8040300F007000028EDD0431E22FA03F0E9E7FFF7FFFC0246A3
S325000152A0234BD3F8040200F00700F0E7FFF752FC02461F4BD3F8040100F00700E7E7FFF759
S325000152C0CDFD02461A4BD3F8040600F00700DEE70438032829D8DFE800F00B02141DFFF76C
S325000152E053FD0246124BD3F80403C0F30220CEE7FFF7D4FC02460E4BD3F80402C0F3022049
S32500015300C5E7FFF727FC0246094BD3F80401C0F30220BCE7FFF7A2FD0246054BD3F80406DB
S32500015320C0F30220B3E70020A1E700209FE700BF0040064008B5114B1B69C3F30113032BCF
S3250001534019D8DFE803F00207101300210620FFF789FF08BD094B186900F00200002818BF1F
S325000153604FF4FA40F5E7064B1868F2E700210520FFF778FFEDE70020EBE700BF0080044027
S3250001538054B2FF1F38B51C4B33F810309B0003F1804303F5CA231D68C5F3C0051C6804F072
S325000153A00704AC4225D31868C0F3807010B31B68C3F30263013B052B19D8DFE803F0030C4B
S325000153C0101818140620FFF74DFF0134B0FBF4F005FB00000EE00420FFF744FFF5E70520FA
S325000153E0FFF740FFF1E70720FFF73CFFEDE70020EBE7002038BD00BF642202000F4B1B6941
S32500015400C3F38103022B07D0032B0ED0002B0CBF4FF4FA3000207047084B186900F002003B
S32500015420002818BF4FF4FA407047044B186900F00200002818BF4FF4FA4070470080044079
S3250001544008B5224B586810F400603ED05B68C3F303130E2B09D8DFE803F00A080D08120845
S32500015460171C20252F0829082C00002026E0FFF7D7FE23E001210620FFF7F4FE1EE00121D5
S325000154800420FFF7EFFE19E001210520FFF7EAFE14E00020FFF788FE10E001210720FFF721
S325000154A0E1FE0BE00120FFF77FFE07E0FFF7A6FF04E0FFF73FFF01E04FF4FA30034B5B688E
S325000154C0C3F302230133B0FBF3F008BD00800440F0B5A1B0D8B104460646974B1B69C3F36E
S325000154E00363032B40F0B2803146E078FFF7EAFB0546002800F0C880FFF71AFB022800F035
S32500015500DF80032840F0678204F13E0668E201238DF80B3000228DF80C208DF80D308DF860
S325000155200E208DF808308DF809308DF80A308DF816308DF814308DF815208DF80F208DF875
S3250001554010308DF811308DF838300D928DF825307A4906918DF81C208DF824208DF81D3022
S325000155608DF81E2002208DF81F008DF820308DF821308DF830308DF828208DF82F208DF8E5
S3250001558029200C218DF82A108DF82B208DF82C308DF82D308DF83D3003218DF83C108DF8D0
S325000155A04B308DF841108DF840208DF83F308DF83E308DF845008DF844308DF843208DF897
S325000155C0421006208DF849008DF848208DF847308DF846105A491E9120211D918DF84C3078
S325000155E08DF84D208DF84E208DF84F208DF850308DF854308DF853308DF852208DF85120C8
S325000156008DF868308DF869308DF86A308DF86B308DF86C308DF86D308DF873308DF8583091
S325000156201792189219928DF86E308DF86F308DF870208DF871208DF872208DF87C308DF826
S325000156407D308DF87E2002AC264646E7FFF79CFB28B900210120FFF7A5FB054688B9032334
S325000156608DF8073000228DF8062001228DF805208DF8043001A8FFF779FD054600283FF459
S3250001568033AF284621B0F0BD04F11001607FFFF76FFA054600287FF42FAF04F1200194F88B
S325000156A02800FFF7FDFB0546FFF742FA022807D003283FF429AF012800F0908100268FE159
S325000156C004F13A068CE106238DF8073002238DF8063001238DF805308DF8043001A8FFF726
S325000156E045FD0546637F83B1012840F08E8101238DF8073000228DF806208DF805308DF8AC
S32500015700043001A8FFF732FD0546E378002B00F07C81012D40F0798102238DF80730002366
S325000157208DF806308DF8053001238DF8043001A8FFF71CFD054668E10040064000127A00B2
S32500015740588FFF1F8DF80730B3788DF8063073788DF8053033788DF8043001A8FFF706FDF0
S32500015760054600288DD1E11DA07BFFF71BFB0546002D86D194F8303013B1E26AB14B1A60EB
S3250001578094F8353053B1B0490A6A22F0706294F834301B0603F0706313430B6294F8433023
S325000157A0002B40F0FE80236F002B38D0E36E002B35D00022A549A64802EB8206236F9B5DC6
S325000157C031F813309B0003F1804303F5CA231F6827F080471F60236F03EB060C9F5D9CF819
S325000157E002301B0603F0E0639CF80360F60006F0080633439CF8046006F0070633439CF8AD
S325000158000160002E14BF4FF080460026334331F8176040F826300132E36E9A42CCD394F8C5
S325000158204430C3B194F8463094F847208949486820F47F6094F84510002914BF4FF400618E
S3250001584000211B01DBB2120202F4E062134303430B43804A536094F84830DBB194F84A302E
S3250001586094F849207B49096921F03F0194F84C00084394F84B10002914BF022100219B00C0
S3250001588003F00C030343120102F0300213430B43704A136194F86030002B37D06D4B196C25
S325000158A021F0010194F861200A431A641B6C23F0020394F86220002A14BF022200221343B0
S325000158C0644A1364136C23F0040394F86320002A14BF0422002213435E4A1364136C23F0A8
S325000158E0080394F86420002A14BF082200221343584A1364136C23F0100394F86520002AEE
S3250001590014BF102200221343524A136494F8503033B1514B626D1A60A26D5A60E26D9A6009
S3250001592094F86630EBB14B4A936E00209066516821F4805194F868301B0303F480530B43FD
S325000159405360906694F867305BB194F869305B0003F00E0394F86A20134343F080533D4AEB
S32500015960936694F87430002B3FF48BAE3B498B7803F07F0394F8752082F0010243EAC213CC
S32500015980DBB28B7094F97630002BBCBF20335BB232490A7903F01F0302F0E00213430B7186
S325000159A06FE604F136010120FFF7FCFA08B1054667E604F13A010220FFF7F4FA48B904F1D5
S325000159C03E010320FFF7EEFA00283FF4ECAE054657E6054655E601287FF453AE04F13606AF
S325000159E0002D7FF44EAEF378032B7FF4ABAE94F82830002B7FF467AE637F002B7FF477AE63
S32500015A00E378002B7FF488AE0125002D7FF439AEE11DA07BFFF7C6F9054600287FF431AE10
S32500015A20F3788DF80730B3788DF8063073788DF8053033788DF8043001A8FFF797FB0546CD
S32500015A4096E600BF54B2FF1F0040064064220200005006400080044058B2FF1F00D0074039
S32500015A6070B504460D46112807D9232840F284804D2840F24D81042070BD112879D8DFE8AC
S32500015A8000F00912181E23282D32373B40474E555C636A710020FFF787FB03460020002DB0
S32500015AA0EAD02B60E8E70120FFF77EFB03460020F5E70220FFF778FB03460020EFE7FFF736
S32500015AC0BFFC03460020EAE7FFF7E8F803460020E5E7FFF759F903460020E0E7FFF73AF81F
S32500015AE003460020DBE7FFF7B9F903460020D6E7AC4B1B680020D2E7FFF792FB0346002067
S32500015B00CDE700210420FFF7ADFB03460020C6E701210420FFF7A6FB03460020BFE70021C4
S32500015B200520FFF79FFB03460020B8E701210520FFF798FB03460020B1E700210620FFF793
S32500015B4091FB03460020AAE701210620FFF78AFB03460020A3E700210720FFF783FB0346FD
S32500015B6000209CE701210720FFF77CFB0346002095E70023042092E7A0F115040E2C00F24A
S32500015B80A780DFE804F00814202C363F44505B666E79848F9A00844BDB68C3F30163022BFD
S32500015BA000F29980814A52F82330002025E07E4BDB68C3F38163022B00F290807B4A52F862
S32500015BC02330002019E0784BDB68C3F30173022B00F28780754A52F8233000200DE0724BD6
S32500015BE0DB689B0F022B7FD8704A52F82330002003E0FFF725FC03460020002D3FF43CAF08
S32500015C002B6039E7FFF796FB03460020F5E7684B9B78DB0902D000231846EEE7FFF7EEFB55
S32500015C2003460020E9E7624B9B78DB095FD15E4B1B6913F001035DD10020DEE75C4B9B784F
S32500015C40DB095BD1584B1B6913F0020359D10020D3E7574B9B78DB0957D14FF4FA330020A9
S32500015C60CBE7514B1B6CC3F3001313B100231846C3E74FF48070C0E74B4B1B6CC3F3C00320
S32500015C8013B100231846B8E74FF48070B5E7464B1B6CC3F3800313B100231846ADE74FF4DD
S32500015CA08070AAE7404B1B6CC3F3400313B100231846A2E74FF480709FE73B4B1B6C13F0BA
S32500015CC0010302D00023184697E74FF4807094E70023042091E7002318468EE70023184604
S32500015CE08BE70023184688E70023184685E70023184682E74FF47A7300207EE7002318462E
S32500015D007BE74FF4FA43002077E70023184674E724286DD9A0F13303DBB21A2B05D8254AC9
S32500015D2022FA03F313F0010F69D1234B33F81420224B53F8223013F0804F62D0204B1E5D3C
S32500015D4016F0200F12D116F0400F18D116F0800F1ED116F0180F48D016F0080F32D116F0F7
S32500015D60100F37D100234FF4807043E00120FFF71BFA03460028ECD14FF480703AE00020B5
S32500015D80FFF712FA03460028E3D14FF4807031E00220FFF709FA03460028DAD14FF4807027
S32500015DA028E000BF54B2FF1F0080044058B2FF1F00D007404121000464220200005006406A
S32500015DC00024020000212046FFF7DCFA034616F0100F04D001212046FFF7D4FA0346002B41
S32500015DE014BF00204FF4807004E00023184601E004200023002D3FF43FAE2B603CE60420CB
S32500015E00F7E74FF48070F4E710B4054C20602171A2602373637300205DF8044B704700BFC0
S32500015E20A80000202DE9F04182B007460E468DF804008DF8051003F05DF9354B1C7B5C7327
S32500015E4001238DF80630002C52D00024304D04E00134E4B22B7BA3424AD9AB6853F824305E
S32500015E60002BF5D01A79022AF2D01A68996801A890470028ECD06C73002EE9D140F20315B2
S32500015E8040E002238DF80630214B1B7BEBB100241F4F04E001343A7BE3B29A4215D95FFA45
S32500015EA084F8BB6853F82830002BF3D01A79012AF0D01A68996801A890470028EAD087F8C9
S32500015EC00D80002EE6D14FF4827503F005F9284602B0BDE8F081043C14F1040FF5D0B368B0
S32500015EE01B59002BF7D01A68996801A89047F2E7074D2B6853F82700FFF7EAFA6F710546FB
S32500015F000028BED000238DF80630A400004EE6E7A800002008B5FFF7A3FD08BD29B1411814
S32500015F20002300F8013B8142FBD1704708B5084B1B6853F8203000F00F00064A1077D07772
S32500015F4023B15A6812B1197B9868904708BD00BFB80000200080004038B5054600F00F041F
S32500015F6000222146094800F0D6F9094B1B6853F8253053B1054A1477D477947701221A7326
S32500015F805A6812B1197B9868904738BD00800040B80000202DE9F04F85B09DF838600F9D1A
S32500015FA00124B4405FFA84FCB5FBFCF70CFB17571FB1012005B0BDE8F08F0393029289460D
S32500015FC0804600F00F07DFF8FCA03946504600F0A7F9DAF8003023F08003CAF800307B01D0
S32500015FE003F1804202F5004B02F5104202991160534441F21002039999500196009600239C
S325000160001A463946504600F0C1F9B9F1030F12D8DFE809F0022B3B4A41F2040300222BF8C3
S32500016020032064B2A4B27B0103F1804303F5004341F214029C52234C2A463946204600F071
S32500016040BDF901223946204600F0E6F904EB471741F21C02BB5A43F00203BB521A4B1B68CC
S3250001606053F8283000201873A4E764B2A4B241F204032BF803407B0103F1804303F50043C6
S3250001608041F2140200219952D5E764B2A4B241F204032BF803407B0103F1804303F500436E
S325000160A041F214029C52C6E7002241F204032BF803207B0103F1804303F5004341F214019D
S325000160C05A52B8E700800040B800002070B582B00546079C01949DF818400094FFF75AFF2C
S325000160E0064610B1304602B070BD05F00F050F4C089A2946204600F08FF904EB451441F269
S325000161001C03E35A23F008031B041B0C9DF82420002A14BF082200221343690101F1804123
S3250001612001F5004141F21C028B52DBE70080004008B5012200F00F01024800F0ECF8002053
S3250001614008BD00BF0080004008B5002200F00F01024800F0E0F8002008BD00BF008000409F
S3250001616010B40F4B1C5C04F07F041C541C5C01F03F0104F0C004214319541B5C03F0BF033D
S32500016180002A14BF402200221A43054B1A541A5C42F080021A5400205DF8044B704700BF8A
S325000161A0001002402DE9F04180460C464D7805F00F061021FFF7B2FE227BA1786078FFF7FD
S325000161C0CFFF074631461D4800F0AAF817B13846BDE8F0811A4B1B6843F8258053F825207B
S325000161E0157053F8253000221A73144D01223146284600F08BF82B6813F0040F11D12378C2
S32500016200FF2B0ED086F0030606F1804606F5004696F8002103F00F0302F0F002134386F886
S3250001622000316568A1686278054B1B6853F82200456053F822309960C9E700BF00800040CC
S32500016240B8000020F8B50C4617461E46234B18604021FFF763FE224D284600F086F82A6824
S3250001626022F0040223789B0003F0040313432B602B6823F010036278002A14BF102200220A
S3250001628013432B60102002F00DFF164D6C1E0F3514F9010F02F006FFA542F9D1124800F0A8
S325000162A0EAF8AFB1B6B1069BB3B13C1F351F07EB8307043F002655F8041F54F8040FFFF7D0
S325000162C071FF002818BF0646BC42F4D13046F8BD0026FBE70026F9E70026F7E7B800002024
S325000162E000800040502402000010024000F00F00400100F1804000F5004041F20C03C15096
S325000163007047000000487047008000400AB141767047017670470AB1C17670478176704752
S3250001632000EB4111002341F208028B5001F58052136041F204028B5241F206028B5241F242
S325000163400C028B5041F210028B5041F214028B5241F216028B5241F218028B5041F21C0266
S325000163608B5241F21E028B52704738B50546036823F4403323F0C60303600024E1B22846C1
S32500016380FFF7CEFF0134102CF8D138BD10B4DB00DCB29DF8083003F00703234343EAC22395
S325000163A09DF80420120202F4E06213439BB2803100EB4111CB805DF8044B7047036813F02C
S325000163C0800F23D010B400EB411341F208041B59002B0BDB00EB41131B5913F0804F05D112
S325000163E022F0404200EB411002510CE000EB411041F20801435823F47F7323F00303C2F39D
S325000164000902134343505DF8044B704700EB411041F20803C250704710B400EB411441F2AC
S325000164201E03E35A13F4004F14D100EB411041F21E01435AC2F30E0203F4004313434352A7
S3250001644041F21601435A03F400431A4342525DF8044B704741F21E01635AC2F3080203F403
S325000164607E431343635241F21601635A03F47E431A436252EBE700231A46C2540133102B9F
S32500016480FBD1704708B50020FFF750FD08BD08B50120FFF74BFD08BD08B50220FFF746FD94
S325000164A008BD08B50320FFF741FD08BD08B50420FFF73CFD08BD08B50520FFF737FD08BD91
S325000164C008B50620FFF732FD08BD08B50720FFF72DFD08BD08B50820FFF728FD08BD08B59D
S325000164E00920FFF723FD08BD08B50A20FFF71EFD08BD08B50B20FFF719FD08BD08B50C2032
S32500016500FFF714FD08BD08B50D20FFF70FFD08BD08B50E20FFF70AFD08BD08B50F20FFF768
S3250001652005FD08BD38B50020FFF7ECFEC56A002407E02046FFF710FD6D080134E4B2102C81
S3250001654003D015F0010FF7D0F3E738BD03680B6043684B6083688B60C3680B6103698B61C5
S325000165602D4BDB6CC3F303330F2B4CD8DFE803F0080F13171D2024282C2F33373B3F4347BE
S325000165804FF48033CB6000234B61002070474FF0FF33CB60F7E74FF0FF33CB60F3E74FF4FA
S325000165A00043CB604FF48053EEE70023CB60F9E74FF0FF33CB60E6E74FF0FF33CB60E2E77F
S325000165C04FF0FF33CB60DEE70023CB60EAE74FF0FF33CB60D7E74FF48043CB60E2E74FF49D
S325000165E00043CB60DEE74FF48033CB60CBE74FF0FF33CB60C7E74FF0FF33CB60C3E74FF4BB
S325000166008033CB60BFE7CB68B3F5803F34BF4FF480530023B8E700BF0080044012F0070FEF
S3250001662050D12DE9F84306468068884208D8F46804448C4204D901F50001091A00200AE090
S325000166403068814206D3746804448C4215D9091A002000E001205D420F465418DFF86880BC
S32500016660DFF86890A74206D028B998F8003013F0800F04D10220BDE8F8830120EBE77023B5
S3250001668088F80030072388F80730C7F3074388F80630C7F3072388F80530FBB288F80430AE
S325000166A0E84305EB090CC5F107020CEB000110F8013F0B708242F8D130460CF0B9FD083735
S325000166C0083DCFE70120704700000240090002402DE9F84F9DF82CB012F0030A03D001237F
S325000166E01846BDE8F88F064614461F46D0F80880414516D3C3684344994212D201F50005D3
S32500016700A5EB08050023DFF8A49034B12BB999F8003013F0800F0FD102230A9AC2F800A088
S32500016720DEE7D6F80080414537D373684344994235D2A1EB0805E5E7702389F8003002239D
S3250001674089F80730C5F3074389F80630C5F3072389F80530EBB289F8043089F80BB03B78E8
S32500016760104A13707B7801321370BB7801321370FB780132137030460CF05AFD034640B177
S32500016780094A954286BFA8F5000AAA4408EB050ABBE7043C04370435B7E70123BDE701230C
S325000167A0BBE700BF0C000240FFFF7F000000024070B5184E367816F0800F26D01D460C46EB
S325000167C0144B702119708121D9719C71552C15D00CF02EFD772C19D1C0B9C5B10D4B9A7ACB
S325000167E02A70DA7B1202AA80997B0A43AA805A7A12026A801B7A1A436A8007E0110AD972DF
S32500016800D2B29A720CF014FD00E0022070BD0120FCE700BF000002402DE9F84F1E462F4B65
S3250001682093F801A01AF0010A3DD081460C46174603698B423AD88A1841690B449A4237D8BC
S32500016840002F3BD04FF0020BDFF8908014E0984798F8013013F0010F05D1D9F81830B3F18A
S32500016860FF3FF5D0F3E798F8000000F071002C442E447F1B11D0A0B914F0030F01D1032F73
S325000168801ED814F0010F15D1012F13D97278337843EA022323805D46DAE7003018BF0120CF
S325000168A002E0012000E00420BDE8F88F0120FBE70120F9E7337823705546C9E70020F3E717
S325000168C0F278B3781B0443EA026332781343727843EA022323600425BAE700BF00000240E1
S325000168E038B50D4C247814F0800F12D00A4C702525708025E571A3719DF8103063719DF86D
S32500016900143083F001032371E172A2720CF090FC38BD0220FCE700BF000002402DE9F041F0
S3250001692086B00E4615469846224B53F82040224B53F82070384600F08BFE864235D204EB78
S32500016940C6046379002B33D11F2E04D806F01F02012393403B63022363719DF83430A37180
S32500016960EB7AE3716A6804922A788DF80C202A7A8DF814206A7A8DF81520AA7A8DF81620C2
S32500016980002B14BF1C230C2302930C9B0093434602AA3146384600F0F7FF034608B1002281
S325000169A06271184606B0BDE8F0814FF44073F8E70223F6E7BC000020602402002DE9F84349
S325000169C00C4690461F461B4B53F820501A4B53F82060284600F03CFE844220D22B6813F0EC
S325000169E0005F06D06B6BC3F303635B0007339C4218D906EBC40999F80530B3B9012289F871
S32500016A00052046F8348089F806702146284600F0B1FE034650B1002289F8052006E04FF4B2
S32500016A20407303E04FF4407300E002231846BDE8F88300BF60240200BC00002070B50646AE
S32500016A40264B53F8204094F811317BB16379DBB2032B1ED100232360A379002B39D16379C0
S32500016A60DBB2032B1CBF0023637170BD1C4B53F8205000220521284600F07CFE00220621CA
S32500016A80284600F077FE00220721284600F072FEE0E7256894F81001FFF756FB2B6813F432
S32500016AA0001F02D16A68920C6A60C3F3034385F84830AB681BBAAB60EB681BBAEB60D4F880
S32500016AC00051002DC6D02346002208213046A847C0E7201D04F0E2FAC1E700BFBC0000208B
S32500016AE06024020038B50C460A4B53F820500022094B53F8200000F03DFEE1006C18A3792D
S32500016B0013B90023637138BD081D284404F0C6FAF7E700BFBC0000206024020070B50D46FA
S32500016B20244B53F820402668204600F079FE16F4006F20D0236D03F000432365216D2B6801
S32500016B409B029BB26A68520102F478721343AA6802F01F021343E868174A02EA40521343E9
S32500016B602A69120402F4F81213430B432365204600F049FE70BD636823F007031B041B0C41
S32500016B80636061682B6803F00703EA6843EA0263AA68120402F4E02213436A68D20402F4DA
S32500016BA0601213432A69920502F4400213430B436360DCE7602402000000E07F38B50D4655
S32500016BC0154B53F82040204600F02AFED4F8042C124B1340C4F8043CD4F8041C2B689B0261
S32500016BE003F4F8436A685201D2B21343AA6802F007021343E8680A4A02EA005213432A692F
S32500016C00120402F4E02213430B43C4F8043C204600F0F9FD38BD00BF60240200188308C0D6
S32500016C200000F03F38B50D46094B53F82040204600F0F6FD3DB9236823F480332360204662
S32500016C4000F0E1FD38BD236843F480332360F6E760240200F8B50E4615461F46414B53F877
S32500016C602040204600F0DCFD236803F07F039D4212D81F2D10D8236813F0005F1BD18EB961
S32500016C80394B03EA874705F5087544F82570204600F0B9FD0020F8BD204600F0B4FD4FF43B
S32500016CA04070F8E7012EF2D127F0604705F5087544F82570EBE7636BDB0D03F01E03073370
S32500016CC01F2B28BF1F239D4212D82368C3F30123022B2BD0032B39D0012B1BD03A460021F5
S32500016CE0304600F085FC05F5087544F82500CEE73EB91D4B03EA874705F5087544F82570B7
S32500016D00C5E7012EC3D127F0604705F5087544F82570BCE73A460121304600F069FC40EABD
S32500016D20104005F5087544F82500B0E73A460221304600F05DFC030C43EA1063034343EA09
S32500016D40102305F5087544F82530A0E73A460321304600F04DFC05F508754FF0FF3344F8F3
S32500016D60253094E7602402000000FC1F2DE9F04782B0814688461746AF4B53F820402368FA
S32500016D80002B1DDA62687B7A5B0303F4005322F4005213436360204600F070FC204600F0CA
S32500016DA03FFD204600F08CFC236823F400633A7A002A60D12360226D22F00042002362E0D3
S32500016DC0204600F02DFD204600F06DFCDAE73979204600F0A7FC0246002870D043E02368A3
S32500016DE013F0005F43D0236843F4004323606AE0FB6838697D69BE69FA69616821F00701EF
S32500016E000904090C6160616803F0070343EA06632D0405F4E0252B43C00400F46010034321
S32500016E20920502F4400213430B436360A1E0204600F0E9FCA5E002F035F9A9E002F032F90E
S32500016E40C6E002F02FF9CBE09DB108F1040808EBC505504604F03FF90AF1080A5545F8D17E
S32500016E60012200E00122104602B0BDE8F0870122F9E70122F7E743F400632360226D22F0FF
S32500016E8000424FF000431343236523683A7AC3F3C0239A42E6D1636B23F48053002A14BF29
S32500016EA04FF48052002213436363BB79022B03D0236843F4003323607B79002B87D197F8C6
S32500016EC03430012B8BD097F834301BB9236823F400432360F979204600F021FD39682046A4
S32500016EE000F0D5FE02460028BDD1236813F4006F3FF47EAFFB6838697E69BD69FA69216D67
S32500016F0001F000412165216D9B029BB2400100F47870034306F01F063343484800EA455532
S32500016F202B43120402F4F81213430B4323653B6A786ABE6AFD6A3A6BD4F804CC40490CEAC4
S32500016F400101C4F8041CD4F8041C9B0203F4F8434001C0B2034306F007063343394800EAB4
S32500016F6005552B43120402F4E02213430B43C4F8043CB979204600F0A3FCBB79032B7FF498
S32500016F8056AF314B13F9090010F1800F7FF453AF4F238DF8043056238DF805305D238DF8EC
S32500016FA0063002AB4B4413F9040C02F0D7F8274B13F9090002F076F8254B13F9090002F01D
S32500016FC071F8244B13F9090010F1800F7FF436AF204B4B4493F9030010F1800F7FF431AF69
S32500016FE008F1040A544600252E463146204604F068F8024600287FF427AFA67044F8046CA4
S3250001700008EBC5035E7101350834202DEDD197F8343088F8113197F8353088F810310023D5
S32500017020C8F80031C8F80431C8F80831C8F80C31094B43F8298016E7602402000000E07F53
S32500017040188308C00000F03F7C240200702402006C24020074240200BC00002010B586B05C
S325000170605468049414788DF80C40947A8DF81640147A8DF81440527A8DF8152008220292C4
S325000170800022009202AA034C54F8200000F07CFC06B010BD6024020070B582B00E460A4C5C
S325000170A054F8205000240194069C0094FFF736FC034610B1184602B070BD012231462846A7
S325000170C000F058FB0346F5E76024020070B584B00D461E46154C54F82040506802901078CC
S325000170E08DF80400127A8DF80C200F2200926A46204600F01BFD034610B1184604B070BD99
S325000171000023009333466A462946204600F00EFD03460028F1D10423009333466A46294634
S32500017120204600F003FD0346E7E700BF6024020008B50023FFF742FC08BD000010B5074BA6
S3250001714053F82040064B53F82020D2F808310BB10A219847204600F083FB10BD60240200B1
S32500017160BC000020F8B5184B53F82040236813F4804F28D00546154B53F82060D4F8083B93
S3250001718013F4003F0CD0D4F8083B43F40033C4F8083BD6F800711FB1334600220521B8477F
S325000171A0D4F8083B13F4803F0DD0D4F8083B43F48033C4F8083BD6F8004124B1334600229F
S325000171C006212846A047F8BD60240200BC0000202DE9F04194B006466B4B53F820506B4B17
S325000171E053F82070AB6A2A6B134013F0010F08BF012440F0C180AB6A2A6B134004F01F022E
S32500017200D34013F0010F16D10134202CF3D166B9D5F8083BD5F8082B5B0C43EA124313F0FA
S32500017220010F02D00020FFF79DFFEB69B3B13046FFF784FF12E02B6813F0005F01D0072C21
S325000172400FD907EBC4035B79DBB2012B41D007EBC40898F80530DBB2022B5DD014B0BDE815
S32500017260F081052C0ED0062C24D140232B63D7F80081B8F1000FEAD03B4600220221304671
